:020000022000DC
:1060000000000420C1070300010803000308030087
:10601000050803000708030009080300000000004A
:106020000000000000000000000000003D07030029
:106030000D080300000000005D07030011080300C5
:10604000ED090300130803001308030013080300FD
:1060500013080300130803001308030013080300C8
:1060600013080300130803001308030013080300B8
:1060700013080300130803001308030013080300A8
:1060800013080300CD0403001308030013080300E2
:106090001308030013080300C57D02001308030062
:1060A0001308030013080300130803001308030078
:1060B00013080300130803000000000000000000A4
:1060C0001308030013080300130803001308030058
:1060D000130803001308030013080300C59002000F
:1060E0001308030013080300130803000000000056
:1060F0000000000013080300000000001308030064
:10610000000000000000000000000000000000008F
:10611000000000000000000000000000000000007F
:10612000000000000000000000000000000000006F
:10613000000000000000000000000000000000005F
:10614000000000000000000000000000000000004F
:10615000000000000000000000000000000000003F
:10616000000000000000000000000000000000002F
:10617000000000000000000000000000000000001F
:10618000000000000000000000000000000000000F
:1061900000000000000000000000000000000000FF
:1061A00000000000000000000000000000000000EF
:1061B00000000000000000000000000000000000DF
:1061C00000000000000000000000000000000000CF
:1061D00000000000000000000000000000000000BF
:1061E00000000000000000000000000000000000AF
:1061F000000000000000000000000000000000009F
:10620000F1EE103A43F08073E1EE103A704700BFB0
:1062100010B5054C237833B9044B13B10448AFF3E0
:1062200000800123237010BD5C630020000000008B
:1062300084BF030008B5034B1BB103490348AFF308
:10624000008008BD000000006063002084BF0300E0
:10625000154B002B08BF134B9D46A3F5803A002138
:106260008B460F461348144A121A0FF0D7FE0F4BF5
:10627000002B00D098470E4B002B00D098470020F1
:10628000002104000D000D48002802D00C48AFF397
:1062900000800FF059FE200029000AF0D3FA0FF019
:1062A0002DFE00BF000008000000042000000000D8
:1062B000000000005C630020F49500200000000056
:1062C0000000000008B5054800F0E8F920B1BDE87D
:1062D0000840024800F05ABA08BD00BFF469002027
:1062E00070B588B005461E4603911446FFF7EAFFD5
:1062F0009DF9303003990093A2B2B3B2144C04A8B4
:1063000001F0BCFEA98804A801F0C5FE95F90610AD
:10631000204601F0DFFC2968204601F0B7FC04F2BA
:106320007C6004F5C86400F06FF904A9204600F011
:10633000B8F92046012100F0B9F96422114620463F
:1063400000F0A8F90021204600F00EFA08B070BD58
:10635000B463002038B504460D46006801210AF0F8
:1063600073FE01232371284608F06CFD206800218C
:106370000AF06AFE0023237138BD000008B50C48FE
:1063800002F084FB18B90A2008F05CFDF7E7012150
:106390000022084801F008FBFFF794FF4FF47A70E1
:1063A00008F050FDBDE808400349014808F019BD58
:1063B0002C6C0020B46300206893030010B5354CAA
:1063C00064212046FFF7C6FF4FF4C87008F03AFD7D
:1063D0004FF47A712046FFF7BDFF4FF47A7008F052
:1063E00031FD4FF47A712046FFF7B4FF4FF47A7015
:1063F00008F028FD64212046FFF7ACFF4FF4C87079
:1064000008F020FD64212046FFF7A4FF4FF4C87078
:1064100008F018FD64212046FFF79CFF4FF4C87078
:1064200008F010FD64212046FFF794FF4FF4C87078
:1064300008F008FD4FF47A712046FFF78BFF4FF408
:106440007A7008F0FFFC4FF47A712046FFF782FF64
:106450004FF47A7008F0F6FC4FF47A712046FFF79B
:1064600079FF4FF47A7008F0EDFC4FF47A71204612
:10647000FFF770FF4FF47A7008F0E4FC20464FF409
:106480007A71FFF767FFBDE810404FF47A7008F0AB
:10649000D9BC00BF9863002007B50A4B0A491A7897
:1064A0000B7E009301F11000EB2302F53062FFF741
:1064B00017FF4FF47A7008F0C5FC03B05DF804EBE9
:1064C000FFF700BF786300207C63002070B5164D95
:1064D000164C2B78164E1749013320462B7008F0C6
:1064E00080FC0A222978204608F0AAFC3146204682
:1064F00008F077FCFFF762FFFFF7CEFF4FF4FA607A
:1065000008F0A0FCFFF7DEFE0B49204608F069FC0E
:10651000297820460A2208F093FC31462046BDE83F
:10652000704008F05EBC00BF786300202C6C002037
:10653000DABC0300829303009993030070B5144CF6
:10654000072000252060257101210AF015FD206833
:1065500029460AF079FD0F4825714FF4E13102F028
:106560007DFA0D4C0D4B224603F110061868596850
:10657000254603C50833B3422C46F7D1084B1361B7
:106580004C239382042393756FF03403936170BDA1
:10659000986300202C6C00207C630020D9930300BA
:1065A000AD93030072DF704773DF704774DF70478D
:1065B00077DF70470022C2770270704770B51C46C3
:1065C000C37F0E461146E2181D2A05460EDC18440C
:1065D000621CEA540230224600F8016C0FF0F6FC0F
:1065E000EA7F02341444EC77012070BD0020FCE700
:1065F000044A02604A6842608A688260CA68C2606F
:10660000704700BF0C94030030B589B004462022C7
:1066100069460C4801F04EFB0346E07FC2181D2A74
:10662000C5BFC0F11D0308250925DBB26A4629460E
:106630002046FFF7C3FF18B1A5F10903584258419E
:1066400009B030BDB463002007B501238DF80710F1
:106650000DF107021946FFF7B1FF03B05DF804FB27
:106660000023C3770370704708B50346FFF7A2FF06
:1066700006490022C3E9081205499962A1F55601AD
:10668000C3E90B12C3E90D22184608BDFF01010042
:106690002000F400018542858185704790F8230031
:1066A00070470B460146184601F0F7BC80F82210EF
:1066B0007047000070B5044688B00E4615460021AC
:1066C000182202A80FF0AAFC94F821308DF80830A7
:1066D00005EB8503204A049603EB83039B00ADF88A
:1066E00014301368DB0709D41C4BE17F99801C49E7
:1066F0009960C97F1C60998101231360174902AA20
:1067000004F12000FFF74EFF10B1002008B070BD6B
:1067100094F820101348019101F004FB01990246FE
:106720000120FFF745FF0028EFD194F82000012158
:10673000FFF73AFF0028E8D10A4801F053FB628EC8
:10674000A68595424FF0010094BF521B921A84F81F
:1067500023006286DAE700BFA0630020A463002064
:10676000306A0020B463002010B5044641860186DB
:106770000548FA2101F0D9FAE28D218D2046BDE8C5
:106780001040FFF797BF00BFB463002010B5044668
:1067900090F82000FFF70AFF30B984F8230003487F
:1067A00001F038FB012010BD0020FCE7B46300209D
:1067B00030B50B888D88112B85B004460FD0262B61
:1067C0002AD0102B09D1CB7B012B06D1426AAB40DA
:1067D00013434362002380F8233005B030BD436A81
:1067E000EB40DB07F9D5224800F0E4FC0028F4D1A7
:1067F000012202FA05F3626A22EA030294F82330C6
:106800006262002BE9D194F82230002BE5D0218E72
:106810002046FFF7A9FFE0E70B7A012BDDD100232B
:1068200080F823304FF4FA71114801F07EFA238E7C
:1068300043B9A36B03B198470022618D2046FFF74F
:1068400039FFCAE7658E25B1A36B03B19847628E05
:10685000F3E7074801F0DEFA626B002ABDD000952D
:1068600003AB2946284603950AF0D6FAB5E700BFE0
:10687000B463002075DF70474FF010114FF44802E9
:10688000C0E900120022C0E902227047014800F06E
:10689000F3BA00BFA46A002010B5094801F08AFAD3
:1068A000044608B9002010BD00F090F90028F9D086
:1068B000204600F094F9831E58425841F3E700BF88
:1068C000B463002070B5002506462C46A9B23046B8
:1068D000FFF7E2FF08B10134E4B20135142DF5D120
:1068E000204670BD70B58E8819480C4694B031466C
:1068F00001F060FA23881A2B05460ED01F2B19D001
:10690000102B08D1694600F09EF920B111486A4663
:10691000314600F077FE14B070BD00F059F9002840
:10692000F9D0284600F056F90028F4D1284600F0A6
:10693000A1F9F0E754F8080F61686B4603C3694694
:10694000BDF80030ADF802303046FFF793FFE2E7C4
:10695000B4630020D463002051F8322F02604A68EB
:1069600042607047A1DF7047A3DF7047A4DF704724
:10697000002383837047006A00F0D0B8808B704793
:106980002DE9F0410B88CF88382B86B004460D46A0
:1069900059D0392B12D0362B15D1006A00F0BEF831
:1069A00001465D4801F006FA00F01BF904F12408E5
:1069B0000646002F00F09380404648E00B7B012BF9
:1069C00004D0022B1ED006B0BDE8F081426B002A35
:1069D000F9D090F83C3001F11006D90705D4636B6B
:1069E000EA89314620469847EDE70323CDE90306BF
:1069F000E9890093304603AB05910AF00DFA0028AF
:106A0000E1D1ECE7826B002ADDD090F83C308F8832
:106A10009B0701F1100609D4A36BEA893146204691
:106A2000984769893846FFF7A1FFCCE70323C98956
:106A30000093CDE9030603AB304605910AF0ECF96B
:106A40000028E9D0EDE700F124061FB1304601F03F
:106A5000C4FBB8E70A8A3046394601F0A5FB95F831
:106A60000C80B8F1010FF1D0B8F1040FABD1206A5E
:106A700000F054F80146284801F09CF900F0B1F804
:106A8000431F208E9BB2984228BF1846A38BB8B1F3
:106A90002A8AADF80E30EB89ADF812001344ADF838
:106AA0001030206AE36A8DF80D708DF80C80059324
:106AB00000F034F803A9FFF757FF002883D0C5E79B
:106AC000CDE9040040F20512206AADF80C20ADF8C3
:106AD0000E3000F023F803A9FFF746FFB6E7EA8976
:106AE00005F11001404601F05FFB238E002B3FF4BF
:106AF00063AF033EEB89B6B2013EB342FFF65CAF33
:106B0000206A00F00BF8628EA18B92B2FFF72AFF89
:106B100000287FF451AF56E7B463002080887047A7
:106B20008FDF704790DF7047B1DF7047B5DF704788
:106B300010B5074B03600446806A08F009FDE06A5F
:106B400008F006FD206B08B108F002FD204610BDDC
:106B5000F493030010B50446FFF7EAFF204609F05E
:106B6000B5FE204610BD000010B504461648A180B1
:106B7000012121752174518920602181172091897B
:106B8000E08061811B20D189E081A18192E803002E
:106B9000D279A183090CA061A177627419461846C5
:106BA00008F09DFA9DF80810A062084608F097FAD0
:106BB0000023236363754FF48853E3824FF6FF731A
:106BC000E0626382204610BDF4930300007D7047AD
:106BD000407D7047C07D113818BF01207047407C50
:106BE0007047C0887047008970474B7D3BB11F31AB
:106BF0000B6803608B8883808B79837170471831B1
:106C0000F6E7818800F11F02407C01F05BBB8188C0
:106C100000F11F02407C01F00DBC38B50A46054664
:106C20000C468188407C01F01FFB2146012051F871
:106C3000483FC5F81F308B88A5F823308B7985F83D
:106C40002530687538BD38B50A4605460C4600F152
:106C50001801407C01F058FB687550B1214651F88D
:106C6000483FC5F81F308B88A5F823308B7985F80D
:106C7000253038BD10B5447D24B100F11F01407CA2
:106C800001F032FB204610BD0B883A2B73B5044649
:106C90000D4672D032D8113B9AB2132A01D902B0F4
:106CA00070BD132BFBD801A252F823F02D6D02000A
:106CB000516D02009F6C02009F6C02009F6C0200ED
:106CC0009F6C02009F6C02009F6C02009F6C020090
:106CD000336D02009F6C02009F6C02009F6C0200EB
:106CE0009F6C02009F6C02009F6C0200936D02007B
:106CF000A36D0200816D02008D6D02003C2B65D0FA
:106D0000523B9AB2052ACAD8052BC8D801A252F81C
:106D100023F000BF136E0200E96D02009F6C0200B9
:106D20005F6D0200016E0200B16D02000023037569
:106D3000B5E70B7AC375112BB1D0FFF768FF034697
:106D40000028ACD1A0881A461946FFF7EDFEA6E749
:106D50004B8903818B894381CB8983819FE7617C48
:106D60002D4801F020F8EB88984228BF184681B2E0
:106D7000E180A088FFF7DAFE91E74B89C3808EE7B8
:106D8000002211468088FFF7CDFE88E70B89C3817A
:106D900085E7002301A98088ADF80430FFF7C0FE25
:106DA0007DE70B7A002B7FF47AAF4B7A037476E79A
:106DB0000026AA79F3B29A427FF671AF0023A06A47
:106DC0001A46194608F094F90136F2E70026AA7A25
:106DD000F3B29A427FF663AF0023E06A1A4619467F
:106DE00008F086F90136F2E7206B0123A37500282D
:106DF0003FF455AF00231A46194608F079F94EE7DB
:106E0000AB79002B7FF44BAF206BA3750028F2D138
:106E100045E7002396E700BFB463002030B58BB090
:106E20008588059106A84FF42851144600F0D2FC3D
:106E300001224FF6FF73CDE901230094059B06481C
:106E400006AA294600F070F8044606A800F0BAFC2D
:106E500020460BB030BD00BFF467002010B50446DB
:106E6000043001F054F9034B2360002323752046BE
:106E700010BD00BF0100FFFF017D10B5044621B920
:106E8000043001F048F90123237510BD007D7047DF
:106E90000A88322A10B54FF0000312D0332A23D0CB
:106EA000302A2BD1CB88041D33B94B8923B10A2258
:106EB0001144204601F078F92046BDE8104001F069
:106EC0008CB94A89934202DA0133DBB2FAE7CB8804
:106ED000041D002BF0D1002AEED002EB82025200FA
:106EE000023292B20A31E4E7CB88041D002BE3D1D1
:106EF0004A89002AE0D002EB4202F0E710BDA0DF91
:106F0000704710B5044600F5F87001F000F9F8225A
:106F1000002120460FF082F8F8220021A0180FF07F
:106F20007DF8204610BD00002DE9F7439846BDF8D6
:106F30002C30ADF804300546BDF830301948ADF8B6
:106F400006300E46174600F035FF05F5F875814608
:106F5000284601F027F9044628B14846FFF743FECA
:106F600007F070FFF4E70121284601F0D4F8BDF8DE
:106F700028204146284601F0E3F801AA391D304691
:106F8000FFF7BDFF28B94FF4FA71284601F0DDF88C
:106F90000446284601F0C8F824EAE474A0B203B01D
:106FA000BDE8F083B46300202DE9F04F8F880E8890
:106FB00085B004460D466448394600F0FBFEA6F154
:106FC0001003012B82462ED94FF0000B94F8542069
:106FD0005FFA8BF39A423AD804F5A87A4FF0000989
:106FE00094F84C314B4571DD5AF8040BFFF7C3FCA4
:106FF000B84215D1382E03D0392E01D0362E0FD1FC
:10700000B5F80A80B8F1000F0AD05AF804BC584607
:10701000FFF7B4FC404503D129465846FFF7B0FCC2
:1070200009F10109DCE74FF0000822785FFA88F3E4
:107030009A42C9D904EB8303112E58680368394674
:107040000CBF1B685B68984708F10108EDE7163331
:10705000502E54F8239021D0512E34D1AB79B5F86D
:107060000880022B1CD1AB7B062B19D1D9F800303C
:107070004846DB68294698475046FFF7ABFD10B3FA
:10708000502E20D1494602A8FFF766FCBDF80C300F
:10709000434518D15046FFF7B4FD14E0B5F806801B
:1070A000B8F1000F0FD049466846FFF755FCBDF810
:1070B00000304345DAD0494602A8FFF74DFCBDF841
:1070C0000C304345D2D00BF1010B7FE7112E25D1B7
:1070D000002694F84C31F5B2AB420DD904EB85058E
:1070E000D5F85001FFF747FCB84203D1D5F850015D
:1070F000FFF73EFC0136ECE7002594F8F820EBB2F0
:107100009A421DD904EB8303D3F8FC008388BB4269
:1071100002D103681B6898470135EEE7352E0FD181
:107120006B896BB104F5F874AA8905F1100120464A
:1071300001F03AF8204605B0BDE8F04F01F04DB837
:1071400005B0BDE8F08F00BFB463002078DF704762
:107150007ADF704705490022C0E902220346024651
:107160000868496803C21846704700BFFC930300D3
:1071700008B5FFF7EDFF28B9FFF7E8FFB0FA80F098
:10718000400908BD0020FCE710B5094800F012FED8
:10719000044608B9002010BDFFF718FD0028F9D0FB
:1071A0002046FFF71CFD431E58425841F3E700BF3D
:1071B000B463002070B5002506462C46A9B23046BF
:1071C000FFF7E2FF08B10134E4B20135142DF5D127
:1071D000204670BD70478ADF704700001F2310B53E
:1071E00083840C4B006200210446C0E90A13C0E905
:1071F0000F11018680F8381041630E2244300EF0E2
:107200000DFFA023A4F846305023A4F848302046B0
:1072100010BD00BF000180001F2310B5A0F84A1068
:1072200004460062838400F120014430FFF7D3FF5D
:1072300030B9044800F0D6FD012084F82C0010BDC0
:107240000020FCE7B463002000F1200108B5002015
:10725000FFF7C1FFB0FA80F0400908BD38B5012A38
:107260009DF81400144619D94D780A789D4208D12A
:10727000013AD4B2023168B9049822460EF0A6FE53
:1072800006E0D5432C44013214F0FF041144EBD145
:10729000204638BD844228BF0446EDE70024F7E7C6
:1072A00013B59DF81040CDE9003413460A7F896973
:1072B000FFF7D4FF02B010BD2DE9F04F80468DB02E
:1072C00010461546894600F091FAC6B2102E0CBF42
:1072D00040F2023340F206734FF0000713BFAD686F
:1072E000ADF80C300435ADF80C30F608BA461B2268
:1072F000002105A8CDF810A00EF090FE03AACDF84D
:1073000000A0D25D04AB49464046FFF7C9FF0DF12E
:10731000100B04467CB13246294658460EF048FE12
:1073200028B901200DB0BDE8F08F0127DFE7A41BCD
:10733000B344E4B2EEE7002FF7D02046F2E70000B6
:107340002DE9F0410B888D881B2B86B004467FD039
:1073500006D8102B51D0112B5CD006B0BDE8F081BF
:107360001D2BFAD190F92E2091F91B309A4240DC66
:1073700090F8383001F10805E3B994F82F306BB17B
:1073800002230093FF2202AB29462046FFF788FF25
:1073900078B3228EBDF808309A422AD1E26B002AD7
:1073A000DBD001230093029502AB2421284609F08B
:1073B00033FDD2E74FF0000894F838305FFA88F6D2
:1073C000B34212D9616B02A801EB0611FFF710F965
:1073D00002AA29462046FFF76FFF074602A800F0E1
:1073E000F1F908F10108002FE6D094F83830B342E3
:1073F000C3D12046FFF728FFAFE7CB7B022BACD1F0
:10740000012101FA05F2816A00231143816280F8AB
:107410002C30A2E7836AEB40DB079ED51648FFF7C6
:1074200051FA002899D1012303FA05F2A36A23EA4D
:107430000203A36294F82C30002B8ED194F82D30E7
:10744000002B8AD0B4F84A102046FFF7E5FE84E707
:107450000B7A012B81D1002580F82C50074800F0D1
:10746000D9FC226C002A3FF478AF0295009502AB5C
:10747000294628469BE700BFC4630020B463002070
:1074800046DF70477FDF704780DF704781DF7047DE
:1074900085DF704786DF7047F0B500224F08D4B211
:1074A000A74202F1010206D98B1ADBB2055DC65C68
:1074B0000655C554F3E7F0BD70B50C4606461146B7
:1074C00020461A461D46B04701462DB120460022EF
:1074D000BDE87040FFF7D8BF70BD1FB50346084632
:1074E00002A901909847019802AA0121FFF7CCFF59
:1074F00005B05DF804FB000010B50446083001F04B
:1075000038F9074A2260002303222271C4F810349C
:10751000C4F81434C4F81834C4F81C34204610BD20
:107520003507100330B50446ADF55F7D04F108055D
:10753000144801F0BEF80821284601F01DF96846FC
:1075400001F024F90821684601F023F9694628462C
:1075500001F0C8F8412204F54F71684601F026F9A0
:10756000684601F020F904F23D302021FFF794FF36
:1075700004F25D302021FFF78FFF01200DF55F7DC4
:1075800030BD00BF406B002070B50B7803F0FE03E8
:10759000042B8CB00D46144632D12022002104A8C1
:1075A0000EF03CFD224602F110066C461068516850
:1075B000234603C30832B2421C46F7D11021684665
:1075C000FFF76AFF2B46102133F8042FADF8102087
:1075D0009B788DF812300DEB0100FFF75DFF6846D8
:1075E000FFF74EFF102108A8FFF756FF032208A956
:1075F000681C0EF0DDFCB0FA80F040090CB070BDE4
:107600000020FBE708B5137CDB0758BF1C32084697
:1076100002F11201FFF73CFFB0FA80F0400908BD0B
:10762000F0B58D880E46ADF56B7D0446294662485F
:1076300000F0C0FB3388133B0746072B25D8DFE853
:1076400003F004A427243C4980B3182200210DA88C
:107650000EF0E4FC04F2BE330C9304F2DA33109320
:1076600004F2F633119304F23D330F93384604F2DB
:107670007E331393FFF7B3FA01280CAB0CBF2246FD
:10768000002200212846FFF7FDFE0DF56B7DF0BDC1
:10769000D4F81034002BF8D0CDE90C35B37B474A31
:1076A00003F0010306F108000F93042300930E90EA
:1076B0000CAB062109F0B0FBE7E7D4F81434002B3B
:1076C000E3D0CDE90C353E4A022300930CAB0021F8
:1076D0000846EFE7042304F27E3784F87D3338460A
:1076E00004F29E362021FFF7D7FE20213046FFF717
:1076F000D3FE0CA801F04AF808210CA801F049F8C3
:1077000004F27D3141220CA801F05FF8202304AA85
:107710000CA904F1080001F00FF80CA801F043F8DF
:1077200004A82021FFF7B8FE38462021FFF7B4FE59
:1077300030462021FFF7B0FE04A92846FFF7A6FE39
:10774000A3E7337AB3B9737B9B070ED4014602A833
:10775000FFF74BFA029BC4F80634BDF80C30A4F8CE
:107760000A349DF80E3084F80C3404F2BE313846E9
:10777000FFF753FAD4F81824002A86D0337A0D93F1
:107780000C95022300930CABA1E70CA9FFF75BFA61
:10779000034630B100231AAA0CA92846FFF77AFE47
:1077A00073E702460146F8E7D4F81C24002A3FF4A8
:1077B0006CAF0C950123E5E7B4630020B9740200B7
:1077C000DB740200704710B5044609F07FF82046CC
:1077D00010BD0000044A0260012282710022C0E94B
:1077E00002228180704700BF0C9403008379012B33
:1077F00008D0826842B9C26832B9012B8CBF8020A0
:107800000020704710207047802070474DDF704780
:107810004EDF70474FDF704750DF70474BDF7047D8
:1078200010DF70477CDF70477DDF704760DF704797
:1078300069DF704761DF704766DF704767DF704759
:107840007047072009F03EBC37B5164C164DD4F8EA
:1078500028074FF0FF3107F0B7FD0028F7D001A847
:10786000FFF7DCFF0528F2D00028F8D1019B032B9D
:1078700007D8012BF3D9002DF1D0184607F05EFA96
:10788000EDE7A3F10902022AE9D80A2B04D0092B5B
:1078900005D00B2BE3D1012004F0C2FCDFE702206E
:1078A000FAE700BFB46300203DED020008B509F01F
:1078B00064F809F069F8BDE8084009F071B8000003
:1078C00007B50120FFF7A4FF0120FFF79FFF01206C
:1078D000FFF7A0FF01A8FFF79FFF019B9B0706D5BD
:1078E000044BD3F8043513B9022004F099FC03B01B
:1078F0005DF804FB0070024038B50446FFF72AFC2F
:1079000004F11000FEF7B8FF04F12000FFF7F4FDCA
:1079100004F58860FFF7F5FA04F5C860FEF7A4FEE9
:1079200004F27C60FEF746FE04F29C60FFF756FC12
:1079300004F5DE60FFF792FA4FF48053C4F808377D
:10794000164BC4F80C37164BC4F81037154BC4F857
:107950001437002540F20113A4F81837A4F81A5779
:107960005022294604F234700EF058FB012384F8AB
:1079700030374FF6FF73C4F82457C4F82857C4F8BB
:107980002C57A4F81C5784F81E57A4F83237C4F8B3
:107990008857C4F88457204638BD00BF010A170035
:1079A000030001011700030070B5AE4D80F81C17ED
:1079B0008CB080F81D270446FFF778FF28680390F5
:1079C000A94903A8FFF72CFF064618B10026304648
:1079D0000CB070BDFFF774FFA44A94F80D37049201
:1079E00009A90120CDE909660B968DF82430FFF72F
:1079F0001FFF0028EAD194F81C370B90CDE909004D
:107A00008DF8253094F81D378DF82630003B18BFCF
:107A10000123049A8DF8273009A94020FFF708FFB9
:107A20000028D3D194F80C370B90CDE9090063F30B
:107A300000008DF82400049A09A9A020FFF7F8FEA1
:107A40000028C3D1CDE90A00D4F80837049A099375
:107A500009A9A120FFF7ECFE0028B7D194F81C3744
:107A6000002B6AD194F81D37002B40F0B08004A899
:107A7000FFF7DCFE0028A9D1CDE9070040F00100A6
:107A80008DF81C0007A90220FFF7D8FE00289DD121
:107A90002046FFF76DFB0646002897D004F1200032
:107AA000FFF740FD2B7972498DF80830162202A8A5
:107AB000FFF7B8FE002889D194F81D371BB104F1F7
:107AC0001000FEF7E3FE03220021012007F0EAFA8E
:107AD000C4F8240700283FF479AF05AB03256549B6
:107AE00001934FF4A06200236348009507F0C6FE9F
:107AF0002A460021012007F0D5FAC4F828070028FB
:107B00003FF464AF06ABCDE900535C495C48002309
:107B1000C82207F0B3FE5B4B4FF480021A605A4B49
:107B20000093002301224FF48071184608F020FBD7
:107B3000C4F82C0700F078FB49E7CDE90900B4F858
:107B40000E370B900126049A8DF8246009A9232092
:107B5000ADF82630FFF76CFE00287FF437AF94F8BD
:107B60001C370B90CDE90900049A8DF8263009A93D
:107B7000B4F810378DF824602020ADF82830FFF7D6
:107B800057FE00287FF422AFCDE9090094F81237A0
:107B90000B90049A8DF8246009A922208DF82630D4
:107BA000FFF746FE00287FF411AFCDE9090094F8F5
:107BB00013370B90049A8DF8246009A921208DF8C1
:107BC0002630FFF735FE00283FF44CAFFEE60023D9
:107BD000CDE909330B930226B4F81437049A8DF8D3
:107BE000246009A92320ADF82630FFF721FE0028E4
:107BF0007FF4ECAE94F81D370B90CDE90900049AA0
:107C00008DF8263009A9B4F816378DF824602020A5
:107C1000ADF82830FFF70CFE00287FF4D7AECDE991
:107C2000090094F818370B90049A8DF8246009A97C
:107C300022208DF82630FFF7FBFD00287FF4C6AE2A
:107C4000CDE9090094F819370B90049A8DF8246057
:107C500009A921208DF82630FFF7EAFD00283FF41E
:107C600006AFB3E66C940300417802000060002088
:107C70004C94030063940300158002006794030092
:107C80004978020000E100E0437802001FB5084B8C
:107C900001911B798DF80C3008460FF0A4F801997A
:107CA00082B203A8FFF7BEFD05B05DF804FB00BF7C
:107CB0006C94030007B508460DF10601ADF80620E7
:107CC000FFF7B2FD20B99DF8060003B05DF804FB94
:107CD0000020FAE7F0B5124B85B06A4607460C461D
:107CE00003F1080C154618685968164603C6083390
:107CF00063453246F7D118689B88B38030602B46C5
:107D0000002213F9011B8C4204D001320E2AF8D153
:107D1000002002E087F81E47012005B0F0BD00BF3B
:107D20007194030090F91E077047F7B50446D0F828
:107D30002C070E4608F068FB4FF47A7205460023C4
:107D4000B002B10D0DF012FF002702460097D4F8E3
:107D50002C073B46042108F029FA3DB9D4F82C073A
:107D600000952B462A46032108F020FA03B0F0BD07
:107D7000132906D800EB8101D1F8340708B1FEF7CA
:107D800025BF0020704770B5002506462C46A9B2D5
:107D90003046FFF7EDFF08B10134E4B20135142D90
:107DA000F5D1204670BD01290CBFB0F80E07B0F820
:107DB0001407704713299ABF00EB8101D1F83407EB
:107DC0000020704710B5064C0021D4F8280707F0B2
:107DD00057FAD4F824070021BDE8104007F050BA44
:107DE000B463002090F8303713B553B1D0F82C4766
:107DF00007F0F8FD0023024600930121204608F019
:107E0000D5F902B010BD90F8303713B1072009F052
:107E10001BB9704713B50023009304461A4603218B
:107E2000D0F82C0708F0C2F92046FFF7ACFF011E7E
:107E300018BF0121204602B0BDE81040FFF7E3BFA4
:107E40002DE9F04F8F88132F85B004460D4630D8AA
:107E500000EB8703D3F834673EB13046FEF714FFDA
:107E6000294604F12000FFF7DBFB2B88112B71D092
:107E700021D8012B00F09480102B28D0294604F53E
:107E8000C860FEF795FC294604F29C60FFF758FA9B
:107E9000B4F83237BB422B8800F08780102B40F0BB
:107EA0008980EB7B012B40F08580AB88A4F83237CA
:107EB00080E00026D9E71C2BE0D1D4F88427002AE3
:107EC000DCD095F9083003930297022340E0204666
:107ED00004EB8708FFF79EFF20460121FFF793FF81
:107EE000D8F8340705F1080B28B103685B68984798
:107EF0000023C8F83437EB7B3420012B07BF94F8FC
:107F0000129794F813A794F8189794F819A708F003
:107F1000DBFC4B4606465A463946CDF800A0FEF734
:107F200023FEC8F834673046FEF759FE01280AD10F
:107F3000A268002AA2D002970090002102AB084656
:107F400008F06AFF9AE7A269002A97D002970123F6
:107F50000093F2E72046FFF716FF014610B92046CE
:107F6000FFF751FF3046FEF73AFE01280CBFE268EA
:107F7000E2694AB12B7A0393002102230093084659
:107F800002AB029708F048FF04EB8708D8F83407E3
:107F900010B103685B6898470023C8F834376DE771
:107FA00000213846FFF748FC68E7102B3FF479AF13
:107FB000112B26D046BB29462046FFF70BF926B1E8
:107FC0003046FEF70CFE022804D1294604F11000C9
:107FD000FEF788FC04F5DE663046FEF757FF18B161
:107FE00029463046FEF754FF294604F58860FEF71F
:107FF000DBFFD4F888370BB12846984705B0BDE8B9
:10800000F08F4FF6FF7351E73046FEF7E8FD012889
:10801000D6D1D0E773B54FF4FA7006F03EFF0E4D9F
:1080200004464FF4FA76D5F824074FF0FF3107F0F5
:10803000CBF90028F7D00DF106012046ADF8066017
:10804000FFF7F8FB20B921462846FFF7F9FEF2E7D3
:108050000528F0D1E7E700BFB46300200148FFF72F
:108060004BBC00BFB4630020002070474C2303804A
:108070000023C0E90133CA230373704738B51D4696
:10808000FFF7F4FF6DBA52BA9DF9103041600281DA
:108090004581037338BD0180704770B5044688B0D0
:1080A00008460D46FEF7DCFA1022002102A80DF06A
:1080B000B5FF41F20253ADF806302388ADF8043025
:1080C00094F90C308DF81C306368A268069203F1B5
:1080D000100602AA18685968144603C40833B3424C
:1080E0002246F7D106212846FEF7AEFA192301AA47
:1080F000FF212846FEF762FA08B070BD0123037025
:1081000000234370C0E90133C3818381704708B500
:10811000FFF7F4FF08BD10B50446017019B90A2035
:1081200006F0DDFF606010BD037810B5044613B99A
:10813000406807F00DFA2046BDE81040FFF7DEBFAB
:10814000002381608281C3817047037870B5044643
:108150000D46CBB9012363704FF47A720023A80255
:10816000A90D0DF003FD0146606807F02DF9B0B9C7
:108170004FF0FF352378002666701BB1606807F06A
:10818000E7F96660284670BD03220021012006F051
:1081900089FF60600028DDD14FF0FF35F2E7E58907
:1081A000ADB2E7E74078704738B58389934228BF7E
:1081B000134604461D4619B180681A460DF006FFA5
:1081C000A3682B44A360A3895B1BA381E38915FAF1
:1081D00083F39BB2E381284638BD406820B1002379
:1081E0001A46194606F084BF7047B1DF7047B2DF08
:1081F0007047000030B585B053790393137902932B
:10820000D37801939378064D064C009353781278F7
:1082100001290CBF294621460EF086FD05B030BD70
:1082200090940300BD94030008B50C4806F040FC90
:108230000B490A4804F003FA18B90949074804F041
:1082400014FA0849054804F0FAF928B9BDE80840CD
:108250000449024804F009BA08BD00BFAC78002008
:10826000EA940300FE9403007FB50323CDE90301E4
:10827000002105920093044A03AB084608F0CCFDA8
:1082800007B05DF804FB00BFD18502004B68436076
:108290008B688360CB68C36010B50B6903610B7D8D
:1082A00003758B698361CB69C3611F3100F12003C2
:1082B00000F1610211F8014F03F8014B9342F9D12B
:1082C00010BD000010B586B014460323CDE90301AC
:1082D00005920093034A03AB0721204608F09CFD5A
:1082E00006B010BDE184020000B58DB04A1C014605
:1082F0006846FFF77FFF6946024804F006FA0DB0B2
:108300005DF804FBAC7800202DE9F041CCB00B788F
:10831000032B164600AF0D464FEA530208D9022A36
:108320002ED00024204607F59877BD46BDE8F081A1
:10833000E8468CB04A1C01466846FFF75BFF3049AF
:1083400007F1CC0004F088FA0022694607F1CC005E
:1083500004F0B1FB044630B9002407F1CC0004F06E
:1083600065FBC546DEE707F1CC0004F0EEFA021E1D
:10837000F2DD92B2314607F1CC0004F0CBFAECE723
:10838000204C21491E4BDFF88480012808BF21467C
:108390000022381D04F0A4FB194907F1680004F01D
:1083A0005BFA0022391D07F1CC0004F0ADFB07F1A8
:1083B000CC0107F16800FFF769FF04F0A0FB044659
:1083C00068B107F1680004F0C0FA502802460AD0EC
:1083D000002407F1680004F029FB002CE1D0381DCF
:1083E00004F024FB9EE7314607F1680004F092FA9E
:1083F00006F1380229464046FFF7C6F80446E8E78A
:10840000AC780020EA940300FE940300D4630020BB
:1084100038B5044604F099FA051E08DD204604F03C
:10842000BDFA2918204604F09FFA012038BD00202B
:10843000FCE70000B0B5A8B000AF01320C46014621
:1084400007F10C00FFF7D6FE1D4B002207F10C01CF
:1084500007F13C0004F044FB07F13C0004F04FFB43
:1084600040B9002407F13C0004F0E0FA2046A037B0
:10847000BD46B0BD07F13C00FFF7CAFF07F13C0065
:10848000FFF7C6FF07F13C0004F05FFA0028E8DDC3
:10849000C31D23F007036D46ADEB030D82B26946A1
:1084A00007F13C007A6004F035FA694620467A68A4
:1084B0000323FFF79AFEB0FA80F46409AD46D1E7D2
:1084C000AC78002070B505460E461446D1B204F0D3
:1084D00030F9224631462846BDE8704004F03EB9E6
:1084E0002DE9F043A7B00C4600AF00210323064658
:1084F00090462046BA1C7980FFF779FE7B886D464E
:10850000002B5ED00733DB08A5EBC3039D46204656
:108510000323BA1C6946FFF76AFEE94604460028B1
:108520004FD108F101023146381DFFF763FE274B9A
:108530000122391D07F1340004F0D2FA07F13400AA
:1085400004F0DDFA00283CD0214607F1340004F0A5
:108550000BFA07F13400FFF75BFF07F13400FFF778
:1085600057FF07F1340004F0F0F97B8882B29A4299
:108570001BD1D31DDB08A9EBC3039D46694607F158
:10858000340004F0C7F97A88694648460DF010FDBA
:1085900090B107F1340004F017FA7B88DB43191817
:1085A00007F1340004F0E0F9CD467A88494607F136
:1085B0003400FFF787FF00E0CD4607F1340004F0F8
:1085C00035FA9C37AD46BD46BDE8F083AC78002057
:1085D000F0B5B3B004AF0D4614460146493207F179
:1085E0002400FFF707FE2B4807F124016E4604F034
:1085F00026F820B1274807F1240104F086F8254B1E
:10860000012207F1240107F1540004F069FA07F18F
:10861000540004F074FA18B9BC37B546BD46F0BD35
:108620005022214607F15400FFF74CFF00211C2285
:1086300007F1080079600DF0F1FC29461648FFF7B4
:10864000B9FB2022391DFEF7E9FB3B799BB994F871
:10865000491094F84D3094F84E20039194F84A1044
:10866000029194F84B10019194F84C100091381D30
:108670000A490EF059FB381D0EF0B5FB013082B2ED
:10868000391D07F15400FFF71DFF07F1540004F0F6
:10869000CDF9C1E7AC780020B46300201295030047
:1086A00010B5044600F0AEF8002384F8E830204608
:1086B00010BD38B590F8E850044655B9012380F84C
:1086C000E8300AF09FFA20B92046BDE8384000F0B3
:1086D0009DB8284638BD00000148FFF7E1BF00BF44
:1086E000406B00207FB50A6803689A4206460C4634
:1086F00002D0002004B070BD4FF4537006F0CDFBE3
:1087000005460028F5D00A4800F09BF80434002301
:10871000CDE90153326807490094331D0AF00CF982
:108720000446284606F0D5FBB4FA84F04009E1E798
:10873000406B0020151703007FB506464FF45370B9
:10874000CDE902230D4606F0A8FB029A044610B9B3
:10875000002004B070BD009003AB281D311D0AF04D
:1087600069F90546204606F0B4FB002DF0D10398C8
:10877000EFE700220260704710B5044608460AF091
:10878000CBF92060003818BF012010BD0022026024
:10879000704710B5044608460AF0BEF9206000385C
:1087A00018BF012010BD00230360704707B5019278
:1087B0000A46042101AB08440AF038F818B90198B8
:1087C00003B05DF804FB0020FAE730B5054685B03C
:1087D0004FF46370CDE9022106F05FFB044678B1E7
:1087E0002B1D00930190DDE902212868012309F087
:1087F00059FF0546204606F06CFBB5FA85F04009A6
:1088000005B030BD002280F8E420704770B590F8C4
:10881000E44006469CB9012380F8E4304FF4BF5091
:1088200006F03BFB054650B10146304609F05EF9C3
:108830000446284606F04DFBB4FA84F46409204649
:1088400070BD70470146014800F062BA4C6C0020D0
:1088500038B500F0EBF800240546E0B2854203D9B4
:1088600000F002FD0134F8E738BD000070B592B0A9
:108870001E460C4615460021422201A80DF0CEFBF3
:10888000412E5CD940F60832ADF8042040F20222B5
:10889000ADF8082040F20942ADF80C20631C40F20C
:1088A0000122DBB22748ADF8102005228DF81520F3
:1088B0008DF81E30242208908DF8273040F2246075
:1088C0008DF831300A238DF81620ADF824001E4AA9
:1088D0001E488DF8343040F2075306920A90012268
:1088E0000820ADF83830402302218DF81C208DF887
:1088F0002C0004224FF411608DF83C3007238DF8D2
:1089000007108DF812108DF81F20ADF82E008DF88D
:1089100030208DF833108DF83B108DF83F30422217
:108920000B4B8DF8064001A928468DF80E408DF8B6
:10893000264010930DF04AFB422012B070BD00207B
:10894000FBE700BF24020205200105240705800380
:1089500005800240A0F11000FFF788BF07B503684B
:108960008DF807105B6801220DF10701984703B0ED
:108970005DF804FB10B5007EFF2807D000F04AFC2C
:10898000044608B908F05EF9204610BD0020FCE757
:1089900007B5007EFF2804D14FF0FF3003B05DF82B
:1089A00004FB0DF1070100F055FC0028F4D09DF800
:1089B0000700F3E707B5007EFF280AD001220DF17A
:1089C000070100F033FC20B19DF8070003B05DF80B
:1089D00004FB4FF0FF30F9E7007EFF2801D000F0E4
:1089E00043BC7047007EFF2801D000F097BC0020F8
:1089F0007047F8B5037EFF2B06460F46144612D08B
:108A000015465DB1307E00F0DFFB38B12A463946AD
:108A1000307E00F069FC2D1A074401D1601BF8BDBF
:108A200008F010F9EDE70020F9E70000014B187895
:108A3000704700BF486C002000224FF47A71C0E9F3
:108A400001214261044A02F1080130320261FF2231
:108A500001600276704700BF40950300037EFF2B44
:108A60000CD1074A13784BB901210376054B1170DD
:108A7000436100F11001044800F0F0B8704700BFF6
:108A8000486C0020309503004C6C002010B5007E2F
:108A9000FF2807D000F098FB044608B908F0D2F888
:108AA000204610BD0024FBE707B549B940B9694627
:108AB00000F0A0FB009BB3F5966F01D100F018FB0E
:108AC00003B05DF804FB00000148FFF7B5BF00BF2D
:108AD0002C6C0020F0B50546002004462B5D2E19B5
:108AE000002B68D003F14002D2B2012A3DD9F42B09
:108AF0003BD81A061BD40122A3F55846B6F5006FE1
:108B000033D3B3F5803F14444FD31E2853DCA3F571
:108B1000803342009E0A0A44C3F30903A6F5205697
:108B2000A3F5105321F8106002305380D6E703F00C
:108B3000E002C02A1BD103F01F03022206F1010C40
:108B400016441CF8017B07F0C00EBEF1800F0CD15B
:108B500007F03F07664547EA8313F2D1022A16D190
:108B6000A3F18006B6F5F06FC6D30134B6E703F083
:108B7000F002E02A03D103F00F030322DEE703F043
:108B8000F802F02AF1D103F007030422D6E7032A02
:108B900004D1A3F50066B6F5784FE5E7A3F580327A
:108BA000B2F5801FE1D20422A6E7202803D021F8E5
:108BB0001030013092E7F0BDF0B5234B89B003AA25
:108BC000044603F11007154618685968164603C68F
:108BD0000833BB423246F7D11B8833800FCD26467F
:108BE0000FC61A4A2B681068516833806B4603C35E
:108BF0006B4603CB137A84F82030154BC4F8183138
:108C00004FF48073A4F81C3104F118050123A0610E
:108C1000E16184F81E3165612022002104F598701D
:108C20000DF0FCF940F20943C4F82031094BC4F8B7
:108C30002431094BC4F828310023C4F82C31042313
:108C400084F8503109B0F0BD8E950300A095030063
:108C500009000001749503004C940300F8B50E461A
:108C60004569B0F81811B0F81A3132680D445B1A32
:108C7000176890F81C1104469BB22A463046B84744
:108C800008B90020F8BD726829188D4233D26B787C
:108C9000042B1BD1EE78A6B994F81C31013384F86B
:108CA0001C3172B194F850310B2B0AD803F14807EC
:108CB00044F827202B7294F85031013384F8503156
:108CC00032462B78002BDCD01D44DEE7052BF8D193
:108CD00095F90230002BB5BF94F81D3194F81E3180
:108CE0005E1C5E1CB4BF84F81D6184F81E61AE7802
:108CF0003343AB70E5E7B4F818311844636980B2C8
:108D0000A4F81801588094F81C211A710120B9E7C1
:108D100070B504460D460126FFF74EFF40F2EF23E3
:108D2000A3804FF4E1310448A671FFF797FE28466F
:108D300000F0CCF9304670BD2C6C00202DE9F041DC
:108D4000D0F82C5188B08C1C002D3BD1684600F027
:108D5000D1F9224603462C46E1B28B4202F10402CD
:108D60002BD91B4D04AF05F110083E46C6462868B6
:108D70006968BC46ACE80300083545456746F6D14E
:108D80001DF80470124D07F00F0108A8014411F8F6
:108D9000101C22F8021C28686968B446ACE803007D
:108DA000083575456646F6D108A901EB1717013459
:108DB00017F8101C22F8041CCEE75800C0B208B007
:108DC000BDE8F08121462846FFF784FEF6E700BFA4
:108DD0007D95030010B5044679B103291BD090F8A6
:108DE00050318B421CD901F1480300F5AA7150F8AB
:108DF0002300FFF76FFEC0B204E0D0F82031A0F8E6
:108E0000543101200130400040F44070A4F8520178
:108E100004F5A97010BD00F5A971FFF78FFFF1E708
:108E20000020F7E7004870474C6C0020014B586960
:108E3000704700BF4C6C00200A4601460148FFF70E
:108E4000C9BF00BF4C6C0020024B186800B100691C
:108E5000704700BFE06D002010B4094C246808463C
:108E600011461A46BDF804302CB164691CB1A44601
:108E70005DF8044B604700205DF8044B704700BF6D
:108E8000E06D002010B4084C2468084611461A46CC
:108E9000BDF804302CB1A4691CB1A4465DF8044BA4
:108EA00060475DF8044B7047E06D0020024B186886
:108EB00008B190F860007047E46D00202DE9F84398
:108EC0001F461F4B0446186889469046002834D038
:108ED0002C2303FB04001B4B066A456A846A002EA0
:108EE00008BF1E46184B002D08BF1D46174B3046C5
:108EF000002C08BF1C460DF076FF082802463146BC
:108F000028BF082248460DF061F828460DF06BFF97
:108F100010280246294628BF102240460DF056F878
:108F200020460DF060FF042802462146384628BF3F
:108F30000422BDE8F8430DF049B8BDE8F88300BF4E
:108F4000E46D0020A9950300B2950300BF950300CE
:108F500070B50D4E34680546A4B12C2303FB0044C4
:108F6000636913B1984784F8320032682C2303FBFD
:108F7000052393F832402CB923463A220221284691
:108F800000F004FF204670BDE46D0020054B1B6817
:108F900010B533B12C2404FB0030C36A0B60038E80
:108FA000138010BDE46D002008B5202200230521A8
:108FB00000F0ECFE4FF0FF3008BD000030B4044676
:108FC000084611461A46064B1B6833B12C2505FB93
:108FD0000434E3690BB130BC1847012030BC704742
:108FE000E46D002030B4044608461946074B029A47
:108FF0001B6833B12C2505FB0434A3680BB130BCCE
:1090000018474FF0FF3030BC704700BFE46D0020C0
:1090100030B4044608461946074B029A1B6833B120
:109020002C2505FB0434E3680BB130BC18474FF026
:10903000FF3030BC704700BFE46D0020044B1B685C
:109040002BB12C2202FB0030036903B11847704793
:10905000E46D0020054B1B682BB12C2202FB003075
:10906000836903B118470120704700BFE46D0020F9
:1090700003F0D6B807B5114B402283F8272303F03D
:10908000DDF94FF080430024D3F838548DF80040C8
:10909000684607F043FC0A4B019301A807F09CFCCB
:1090A00007F064FCEB0702D5204603F0B9F8002175
:1090B0004FF0FF3001F0B4FFF9E700BF00E100E03E
:1090C00071900200002002F0B3BE000007B500233B
:1090D0000322CDE9002304490448C82206F0CEFB50
:1090E00003B05DF804FB00BFC39503007590020058
:1090F00007F03EBF4FF08052536E1BBA0360136EF1
:109100001BBA43600820704700487047C8950300A9
:1091100070B51A4E33680D4611466BB3012D01D060
:10912000012070BD1478C4F34114012C13D0022C1B
:1091300022D15278012A07D0022AF1D18B88072B3D
:109140001AD10F4A138902E0DA69AAB11378BDE88F
:10915000704002F0C3BA5278222AE1D14A88003A1C
:1091600018BF01221A7602F0A1FA3268136A002BA6
:10917000D6D0107E9847D3E70020D2E7E86D0020D4
:109180000460002070B500F110050446284601F087
:109190006CFC3F2815D9E178002001F0A5FE80B1D4
:1091A000284601F062FC3F28E17807D904F53672C1
:1091B0004023BDE87040002001F0B6BE002001F061
:1091C000A3FE002070BD000010B5044601F028FD8C
:1091D00008B9002010BD01F02BFD0028F9D104488A
:1091E0004FF4567303FB0404207900F00100F1E70B
:1091F000EC6D0020064B4FF4567202FB003050F825
:10920000063F0B6083888B8083798B71704700BF2A
:10921000EC6D002008B5044B4FF4567202FB003091
:10922000103001F00AFC08BDEC6D00204FF45673BD
:1092300070B503FB00F4064E04F1100092B2304406
:1092400001F025FC05463019FFF79CFF284670BD4C
:10925000EC6D0020034B4FF4567202FB00301030CF
:1092600001F018BCEC6D00202DE9F041044601F03E
:10927000D7FC10B90020BDE8F08101F0D9FC06460A
:109280000028F7D14FF45671154D4C4304F12408D2
:10929000A844404601F0D1FB0028EBD02F193046FE
:1092A000B97801F021FE0028E4D004F54674254485
:1092B00029464022404601F0EAFBB978044658B1FD
:1092C00003462A46304601F02FFE38B9054B1B688D
:1092D000DB07CFD500BECEE701F016FE2046CAE779
:1092E000EC6D0020F0ED00E00B4B70B54FF45674C0
:1092F00004FB0034243492B20546204601F0E5FB1D
:109300000646204601F099FB3F2802D92846FFF780
:10931000ABFF304670BD00BFEC6D002008B5044BBC
:109320004FF4567202FB0030243001F09EFB08BD62
:10933000EC6D002073B51B4C4FF456720021204693
:109340000CF06CFEFF2363714FF4424301250026AD
:10935000E3800823237304F138012B4600964FF471
:10936000807204F110002581668101F035FB2B46E7
:109370004FF4807204F59C71009504F1240001F013
:109380002BFB04F50E71284605F036FF04F522711B
:10939000C4E90760284605F02FFFC4E90C0602B0B7
:1093A00070BD00BFEC6D002010B5094C0023236098
:1093B000237104F11000243401F08DFB204601F0EC
:1093C0008AFB20460121BDE8104001F0A4BB00BF8C
:1093D000EC6D0020F7B54B79022B074603D0002532
:1093E000284603B0F0BD8B79022BF8D11F4EB3781D
:1093F0007BBB8B7833700C7809250C4403E0237811
:109400001D44ADB21C446378242B1BD19542F6D980
:109410006378042B12D163790A2B0FD1144B267871
:1094200001930133009302231A46A119384601F033
:1094300027FD70B10E3516FA85F5ADB20B48FFF772
:10944000A1FECDE7052BE3D12146384601F0F4FC1F
:1094500028B9084B1B68DB07C1D500BEBFE7A3785E
:10946000737023781D44ADB21C44D1E7EC6D00202D
:10947000EE6D0020F0ED00E038B50B461146127895
:1094800002F06002202A47D1244A8C881578A54230
:1094900042D14C78203C032C3ED8DFE804F0021483
:1094A0001731012B05D11E4A072302F017F90120BD
:1094B00038BD032BFBD11B4B002BF8D018490020E3
:1094C000AFF30080F3E7012BF1D1ECE7012B02D1E0
:1094D00002F0ECF8EBE7032BE9D14C881248147149
:1094E00004F0010585F0010101F015FB0F4B002B85
:1094F000DDD0C4F3400229460020FFF7D5FAD6E7B5
:10950000012BE5D0032BD2D1094B002BCFD04988BA
:109510000020AFF30080CAE70020C9E7EC6D00200F
:10952000F26D002000000000106E0020A98A0200E9
:10953000000000002DE9F3471C46374BDA788A42D9
:1095400007460E461D4607D09B788B4258D1AB7814
:10955000B34232D001245AE003F5367103F1100012
:10956000A2B201F0B2FA2D4B2BB92D4BEBB92A4820
:10957000FFF708FEEBE76B79FF2BF6D005F53679A0
:109580004FF0000805F1100AA045EED019F8013B94
:109590006A799A4206D1504601F05FFA10B96979AA
:1095A000AFF3008008F10108EEE71E4801F055FA1C
:1095B0000028DCD1AFF30080D9E71B4B13B10020AA
:1095C000AFF300800020FFF74FFE0028C2D11748FC
:1095D00001F033FA0028BDD1002CBBD014F03F03BA
:1095E000B8D1A9780193384601F07EFC019B04466E
:1095F0000028AFD0A9781A46384601F095FC06E05D
:109600000B4B1C6814F0010401D000BE002420465E
:1096100002B0BDE8F08700BFEC6D00200000000044
:1096200000000000FC6D002000000000106E002013
:10963000F0ED00E002488C2200210CF0EFBC00BFEE
:10964000447100200020FFF7F5BF00002DE9F7432B
:109650000D4680466B79032B114604D0002420462A
:1096600003B0BDE8F0832A79C2EBC2041234A4B27D
:109670008C4205D9214B1B68DA07EFD500BEEDE718
:109680001F4E96F801E03746BEF1000FF2D195F873
:1096900000C005EB0C0191F80190B9F1210FE9D15F
:1096A000C6F8881015F80CC006F1010E0236CDF888
:1096B00004E00096614401F0E3FB0028DAD0AB79C6
:1096C000B978012B04BFEB79FB7001233B71AB78B8
:1096D0003B70D7F88830B3F80730FB800029BED044
:1096E000084A4023404601F01FFC0028B7D1034B35
:1096F0001B68DB07B3D500BEB1E700BFF0ED00E0AB
:10970000447100208C71002013782DE9F341154637
:1097100003F01F02012A06460C4601D000246DE02A
:10972000DFF8C081AA8898F80010D2B2914247466B
:10973000F4D113F060031FD0202BEFD16B78013BE5
:109740000A2BEBD801A252F823F000BFBF9702000A
:1097500087980200939802001D9702001D9702004F
:109760001D9702001D9702001D9702001998020024
:10977000639802009F980200012C01D001243DE073
:109780006A78062ACAD16A88120A212A0AD1D8F828
:109790008820002AC2D01378294602B0BDE8F041E3
:1097A00001F09CBF222AB9D11846FFF74DFBB8F84B
:1097B000063002462946304601F090FF1EE0012C9B
:1097C000DCD1EB886988402B4FEA1122184628BF6C
:1097D000402011F0FF0115D0012B13D90138384B6F
:1097E000397280B200900020FFF736FB0444A4B227
:1097F0005CB9344B1B68DB0790D500BE204602B035
:10980000BDE8F081304B0024ECE72F4A234629467F
:10981000304601F063FFB1E7012C05D1EB88402B06
:109820003FF67CAF294AC5E7032CA7D1EB886988AE
:10983000402B4FEA1122184628BF402011F0FF01AB
:109840000DD0012B0BD997F848308B4207D1013846
:109850001F4B80B200900020FFF714FB8EE71B4BDC
:10986000F8E7012C8AD169881A4B090A79712BB162
:109870000020AFF3008000283FF450AF2946304667
:1098800001F014FF7AE7012C7FF478AF124A2346E7
:1098900090E7012C7FF472AF104A23468AE7012C2F
:1098A000ECD0032C7FF46AAF69880D4BC9B23971D3
:1098B000002B3FF463AF0020AFF300805EE700BFF2
:1098C0004D710020F0ED00E04C7100208C71002003
:1098D0008D710020000000004971002048710020B7
:1098E000000000004471002037B51A4CA2788A426B
:1098F000054660780CD0884224D1174A12B901205D
:1099000003B030BD15499AB20020AFF30080F6E7EE
:109910009042F2D000229BB211461046009304F10F
:109920004803FFF7AFFAA178402304F14802284624
:1099300001F0FAFA0028E2D1094B1B68DA0706D5D4
:1099400000BEDDE7064B1B68DB0700D500BE00202C
:10995000D6E700BF44710020000000004C710020D9
:10996000F0ED00E070B500F110050446284601F066
:109970007CF83F2817D9A178002001F0B5FA90B102
:10998000284601F072F83F28A17807D904F5EC7257
:109990004023BDE87040002001F0C6BABDE8704029
:1099A000002001F0B1BA70BD70B500F12404054685
:1099B000204601F042F808B9002070BD6978002007
:1099C00001F092FA0028F7D005F5067631462046D8
:1099D000402201F05CF86978044658B103463246EB
:1099E000002001F0A1FA38B9044B1B68DB07E3D56E
:1099F00000BEE2E701F088FA2046DEE7F0ED00E085
:109A000037B5154C00254FF41672002120460CF096
:109A100005FB04F1380100950123802204F11000B8
:109A200000F0DAFF0123802204F1B801009504F16F
:109A3000240000F0D1FF04F59C71012005F0DCFB4F
:109A400004F5C471C4E90750012005F0D5FBC4E951
:109A50000C0503B030BD00BF5093002010B5084C7A
:109A60001022002120460CF0D9FA04F1100001F078
:109A700032F804F12400BDE8104001F02CB800BF1A
:109A8000509300202DE9F0474B79012B80469246F8
:109A900003D000252846BDE8F0878B79012BF8D14B
:109AA000CB79002BF5D10C7823460C446278242A1C
:109AB00006D15345EDD8227813449BB21444F5E700
:109AC000042AE6D16279012AE3D1A279032AE0D1FE
:109AD000E579002DDDD11E4A577891780F439146E4
:109AE00030D1A27889F8002026789D19ADB226449D
:109AF00010E0B378DA0914BF89F8013089F8023030
:109B0000337801371D44ADB21E44FFB233781D4493
:109B1000ADB21E442379BB4203D80D48FFF722FFA4
:109B2000B8E75545F9D87378052BEFD13146404653
:109B300001F082F90028DCD1064B1B68DA07A8D5B2
:109B400000BEA6E7034B1B68DB07A2D500BEA1E75A
:109B500050930020F0ED00E00020704773B51F4DDA
:109B60001C46AB788B4206461DD06B788B422BD1BE
:109B70002846FFF719FF28BB05F1240000F05DFF20
:109B800000BBFCB114F03F031CD16978019330464F
:109B900001F0AAF9019B0446A0B169781A46304643
:109BA00001F0C2F917E0A2B205F5EC7105F1100061
:109BB00000F08BFF0A4B13B10020AFF30080074881
:109BC000FFF7D0FE012406E0064B1C6814F00104E8
:109BD00001D000BE0024204602B070BD509300208A
:109BE00000000000F0ED00E0034B43F602229A87EC
:109BF000002283F83E207047D073002030B4104B11
:109C000002249A6B83F82C10996883F8304093F8FB
:109C10003C408A1A9A6224B942F205059D8783F86E
:109C20003E4051B14AB11A7BD20930BC14BF93F8FF
:109C30002E1093F82F1001F0B7B930BC704700BF59
:109C4000D073002038B5144B144C054673B1607BBB
:109C5000FFF700FA50B942F2077384F83E00A38779
:109C600028460121BDE83840FFF7C8BFA26BA368B2
:109C700094F82F109B1AB3F5007F28BF4FF40073A0
:109C8000074A9BB2284601F04FF920B9054B1B68E3
:109C9000DB0700D500BE38BD55900200D073002010
:109CA000D0710020F0ED00E070B5254CE28AA36889
:109CB00052BA92B286B0054612B1B3FBF2F292B23A
:109CC000A06BD4F81110B0FBF2F61B1AB3F5007FAD
:109CD00028BF4FF4007309BA009302FB1602194B18
:109CE000607B3144FFF77EF9031E07DAFFF77CFF44
:109CF00001212846FFF782FF06B070BD94F82E10B0
:109D000010D1CDE9033307228DF8101003A81946AE
:109D10008DF80C508DF80D2005938DF8113000F062
:109D2000F3FFE9E7074A9BB2284601F0FDF8002857
:109D3000E2D1054B1B68DB07DED500BEDCE700BFC8
:109D4000D0730020D0710020F0ED00E0C28A83685B
:109D500052BA92B223B9002A0CBF002002207047E9
:109D6000C17B282904D1017BC90906D10220704793
:109D70002A2902D1017BC909F8D122B1934234BF0B
:109D8000022000207047012070470000044880F83E
:109D90003C1080F83D2080F83E300120704700BF25
:109DA000D07300200248402200210CF037B900BFD8
:109DB000D07300200248402200210CF02FB900BFD0
:109DC000D073002073B54B79082B054602D00020D4
:109DD00002B070BD8B79062BF9D1CB79502BF6D11F
:109DE000162A05D8174B1B68D907F0D500BEEEE739
:109DF000154C8B7884F82D3004F12E030E780193E6
:109E000004F12F03009302231A46314401F038F87D
:109E100028B90C4B1B68DA07D9D500BED8E7002358
:109E200084F8303094F82F101F232246284601F082
:109E30007BF820B9034B1B68DB0700D500BE172059
:109E4000C6E700BFF0ED00E0D0730020F0B50129B7
:109E500085B00646154615D1137803F07F02022A15
:109E600046D16C78012C43D16A88002A40D13C4A03
:109E7000AB8892F83070042FDBB2154604D1194636
:109E800001F092F8012017E092F82E10994215D1B6
:109E9000022FF7D19368946B1B1B9362032382F804
:109EA00030300D23203201F03FF80028EAD12D4B4D
:109EB0001B68DB0752D500BE05B0F0BD92F82F102D
:109EC0009942DFD1002FDDD1019101F05FF80199B6
:109ED0000028D7D1304601F0ADFB0028D2D10023B5
:109EE00085F830301E4A95F82F101F233046DAE7E8
:109EF00003F06003202B31D16B78FE2B13D0FF2BA6
:109F00002CD16B8853BBE9888AB23ABB144B3046DC
:109F100099872946C3E90D2283F8302083F83E2033
:109F200001F0C4FBAEE76B88C3B9EB88012B15D1F8
:109F30008DF80F300C4B1BB1FEF7B8FF8DF80F00FA
:109F40009DF80F3053B1013B8DF80F300DF10F022A
:109F500001232946304601F0C1FB93E70020ABE71F
:109F6000D0730020F0ED00E0AD8E02002DE9F0414D
:109F7000AB4C94F83070012F8EB005461E4600F0B1
:109F80009F81032F00F00D82002F42D194F82F30D3
:109F90008B4201D0012013E01F2E03D12268A14B78
:109FA0009A4210D094F82E100423284684F83030BA
:109FB00000F0FAFF94F82F10284600F0F5FF00207B
:109FC0000EB0BDE8F081984B23626368E67BD4F85D
:109FD000088084F82C70C4E90937012384F83030F4
:109FE00006F0FD03282BC4E90D872CD12046FFF78E
:109FF000ADFE014618B12846FFF700FE09E0B8F1B2
:10A00000000F00F05781282E40F0AA812846FFF764
:10A010004BFE94F83030022BBCD194F82E10284619
:10A0200001F008FB0028B5D1A368A26B94F82E10AC
:10A03000934240F2DF81207BC00900F0DB8128469B
:10A0400000F0B2FFA6E7B8F1000F15D0237BDB09C3
:10A0500012D1B8F5007F01D90121CCE7734A1FFA6C
:10A0600088F3284600F060FF0028D2D1704B1B68AF
:10A07000D907A4D500BEA3E7252E94F80D8008D8F3
:10A08000192E14D8032E00F0DD80122E00F08C80E3
:10A0900066B394F83C30002BDED1A38E634A654949
:10A0A000607BFEF781FF002880F2FD80D4E71A3E36
:10A0B0000B2EEED801A353F826F000BFEBA102004F
:10A0C00007A1020093A0020093A0020093A0020047
:10A0D00093A0020093A0020093A0020093A00200AC
:10A0E00061A1020093A0020023A102004046FEF7F6
:10A0F0002FFF002840F0DA8094F83C30002BC8D1C4
:10A10000FFF772FDC5E74C4B002B00F0CF80E17CE0
:10A110004046C1F3400301F001020909FEF74EFF7A
:10A12000E7E704AA05A94046FEF730FF059B002B90
:10A13000E2D0BDF81020002ADED03C49013B1BBA1A
:10A1400012BAC1E900320820A368002B84D08342F0
:10A1500028BF03466363354A94F82E109BB280E70C
:10A1600000230DF10E0205AE04A94046C6E90133F5
:10A170000593FEF70BFF049A002ABDD0BDF80E3000
:10A18000002BB9D012BA5BBA082106920222ADF8B0
:10A190001E308DF817108DF81C2096E80700234B11
:10A1A00083E807000C20CFE7244B204F0022CDE9A5
:10A1B00005324FF020361F231022202109A8CDE9B7
:10A1C00007668DF818300BF029FF0D960DAB09AA24
:10A1D00007A9404605AEFEF771FE0FCE0FC70FCEA2
:10A1E0000FC733683B602420AEE7059B03F40003F0
:10A1F00043F003030593124B7BB14046FEF72AFF61
:10A200009DF8163080F0010060F3C7138DF816300A
:10A21000064B059A1A60042096E70120F0E700BF7C
:10A22000D07300205553424355534253D071002000
:10A23000F0ED00E0DF730020BD8F0200008002021D
:10A24000559002001222002105A80BF0E7FE94F8B9
:10A250003C0094F83D1094F83E208DF82010F02337
:10A260008DF814304FF0000360F303038DF81630BF
:10A270000A238DF81B308DF8212005AE0FCE644FD8
:10A280000FC733683B80634BC3B14FF40072A7F133
:10A2900010014046AFF3008000239842A38784F862
:10A2A0003E30FFF6F6AE00287FF44EAFA368002BD9
:10A2B0007FF4D2AE022384F83030AAE61220EBE716
:10A2C000E37BA26B282B05D1636B32449A42A263D5
:10A2D000F0D29BE62A2B47D1E08A40BA80B218B16F
:10A2E000A368B3FBF0F080B2D4F81110484FB2FB72
:10A2F000F0FC09BA00FB1C220096607B3B466144DF
:10A30000FEF786FE002805DAA36B3344A363FFF74C
:10A310006BFCA1E686421DD9361A40B1A16B11FA39
:10A3200080F1A1633246391838460BF05DFE0021FA
:10A3300094F82F300796072205A8CDE905118DF86E
:10A3400014508DF815208DF818308DF8191000F084
:10A35000DBFC5EE6A36B1E44636BA6639E42A9D240
:10A360002846FFF76FFC54E6237B3244DB09A263E7
:10A370000CD1A38E264A607B04F10F01FEF714FE78
:10A38000002803DA39462846FFF738FCD4E90D32B5
:10A390009A428FD2204B1B68DB077FF53AAE00BE96
:10A3A00037E694F82E308B427FF433AE0D2E7FF4D7
:10A3B00030AEE37B282B09D02A2B14D0174B53B196
:10A3C000607B04F10F01AFF3008004E0144B13B184
:10A3D000607BAFF30080002384F83030114A94F89A
:10A3E0002F101F233DE6104B002BF4D0607BFEF7AF
:10A3F00025FEF0E79B1AA362032384F830300B4A52
:10A400000D23284600F090FD00287FF4C3AD2DE613
:10A41000D071002000000000F0ED00E0000000001E
:10A4200000000000D07300203D900200F073002077
:10A4300070B504468178002000F0A8FD054668B993
:10A44000201D00F012FB3F2808D9A17804F5A67260
:10A4500028464023BDE8704000F066BD70BD000096
:10A46000F8B505464178002000F090FD064610B191
:10A4700000242046F8BD05F5C6774022394605F18F
:10A48000180000F004FB04460028F1D00346697868
:10A490003A46304600F048FD0028EAD1034B1B68DD
:10A4A000DB07E5D500BE0446E3E700BFF0ED00E0C2
:10A4B00037B5144C00254FF4E672002120460BF00E
:10A4C000ADFD04F12C01009501234022201D00F078
:10A4D00083FA0123402204F16C01009504F1180075
:10A4E00000F07AFA04F1AC01012004F085FE04F1D9
:10A4F000FC01C4E90450012004F07EFEC4E9090512
:10A5000003B030BD1074002010B5064C2046002367
:10A5100040F8043B00F0DFFA04F11800BDE81040F9
:10A5200000F0D9BA107400202DE9F34113464A799E
:10A53000FF2A07460D4603D0002002B0BDE8F08197
:10A540001E4E7178B2780A43F6D1AA782878327014
:10A550002A792C1872B3234401E021780C446178E5
:10A56000052901D09C42F8D3DFF85880CDF804804B
:10A5700008F10103009321460223384600F080FCD5
:10A5800028B90F4B1B68DB07D6D500BED5E72B7962
:10A59000B178C3EBC3031C4439B1402308F24B121A
:10A5A000384600F0C1FC0028EBD0737813B10348A3
:10A5B000FFF756FF601B80B2BFE700BF107400209A
:10A5C000F0ED00E01174002008B5114882788A424D
:10A5D00004D042788A4211D0002008BD9AB200F51A
:10A5E000A671043000F071FA0A4B13B10020AFF3EA
:10A5F00000800748FFF71CFF0120EEE7064A1AB16A
:10A6000099B20020AFF300800148FFF729FFF3E77C
:10A610001074002000000000000000000A4492B204
:10A6200091424FEA400001D8824201DB121A92B2F5
:10A630001046704738B50546D41A0846A988A4B212
:10A640009A423CBF04EB4104A4B2B4B1A14205D28A
:10A65000914294BF531A8B189BB26B81994209D9CE
:10A66000EA882968C2F30E0202FB03110BF0AEFC6C
:10A67000012038BD5B1A9BB2F0E72046F9E793084A
:10A6800013B501EB8303044699420BD112F0030288
:10A6900006D0002301A801930BF098FC019B2360D6
:10A6A00002B010BD51F8040B2060EDE72DE9F04336
:10A6B00085B08588BDF830401E1BB6B2A3423CBFB2
:10A6C00006EB4506B6B280460F4666B3B54206D2E3
:10A6D0009D4294BF5C1BEC18A4B244812E46964266
:10A6E00028BF1646A54222D9B8F806009DF8343096
:10A6F000D8F80010A5EB0409751BC0F30E02254421
:10A700001FFA89FC15FB02F519FB02F9012B1FFA50
:10A7100089F9ADB202FB041116D066450AD872431E
:10A7200038460BF053FC304605B0BDE8F083641B9F
:10A73000A4B2D7E74A4638460BF048FCD8F80010D8
:10A740002A4607EB0900ECE7664506D816FB02F23D
:10A7500092B23846FFF793FFE5E729F00304A4B26D
:10A76000224638460191FFF78AFF19F0030929D0E4
:10A77000C9F104039BB2AB42019928BF2B460022CA
:10A780002144ED1A03A80392ADB201EB090402467D
:10A79000A1420DD1D8F8001009F1FF3991440B44C2
:10A7A00099420AD1039B3B60002DBCD02A46D0E7DA
:10A7B00011F801CB00F801CBEAE711F8012B09F8F9
:10A7C000012FEDE7D8F80010EEE77FB504460069E9
:10A7D0000D461E4628B14FF0FF31039204F0F4FD00
:10A7E000039A2389618989B2CDE900169BB2294673
:10A7F0002046FFF75BFF61890246054689B2A088C3
:10A80000FFF70CFF6081206920B100231A4619462A
:10A8100004F06EFC284604B070BD13B5930800EB3D
:10A820008303984209D112F0030204D00B6801930C
:10A8300001A90BF0CBFB02B010BD0C6840F8044B33
:10A84000EFE72DE9FF470646C0680F4615469846D4
:10A8500018B14FF0FF3104F0B7FDF379B6F8089066
:10A860007189B488DB091FFA89F989B21CD189453D
:10A8700036BFC1EB4401A9EB0101494489B2A142B1
:10A8800036BF611A002189B28D4228BF0D46002DC6
:10A8900055D1F06820B100231A46194604F028FC6F
:10A8A000284604B0BDE8F087A5420BD3B8F1000FED
:10A8B00005D1F3882D1BC3F30E0303FB05778946EF
:10A8C0002546E4E789454FEA440236BF531AA9EB0F
:10A8D00001034B449BB22B449342D8DB621B92B2E0
:10A8E0002046FFF79BFE8146D1E7ACEB04001FFA40
:10A8F00080FCA445F9D2F2883068A4EB0C0A2C1B2A
:10A90000C2F30E0364441FFA8AF114FB03F41AFB2A
:10A9100003FAB8F1010F1A461FFA8AFAA4B203FB30
:10A920000C0017D08D420CD86A4339460BF04EFB11
:10A93000B0882A464946FFF771FE3081A9E7CC4628
:10A94000D7E7524639460BF041FB3068224607EB09
:10A950000A01EBE78D4206D815FB03F292B23946A5
:10A96000FFF75BFFE4E72AF003081FFA88F8424686
:10A9700039460190FFF751FF1AF0030A2AD0CAF1B5
:10A9800004039BB2A34201983A68039228BF23466E
:10A99000E41A08F1FF380DF10C0CA4B24044514602
:10A9A000624601391CF801EB00F801EF11F0FF01DC
:10A9B000F7D1306892440AEB0301421E514504D19D
:10A9C0001844002CB4D02246C9E71AF801CB02F88B
:10A9D00001CFF3E73068F4E7B2F5004FF8B504466D
:10A9E0000F4616461D4626D8C06818B14FF0FF31F5
:10A9F00004F0EAFC206918B14FF0FF3104F0E4FCE8
:10AA00009DF81830E0682760C5F30E0545EAC335A8
:10AA100000236381A680E580238118B11A46194678
:10AA200004F066FB206920B100231A46194604F0A1
:10AA30005FFB012000E00020F8BD03894289818886
:10AA40009BB292B2934236BFC2EB41029B1A9B1853
:10AA500098B2884228BF084670470289438992B25B
:10AA60009BB2D31A58425841704782880389408963
:10AA70009BB280B2834236BFC0EB4200181AC018A6
:10AA800080B2824286BF101A80B200207047002335
:10AA9000FFF79BBE38B5044600690D4618B14FF06C
:10AAA000FF3104F091FC2289638929469BB292B25E
:10AAB0002046FFF7BFFD0546206920B100231A4656
:10AAC000194604F015FB284638BD12B10023FFF7E4
:10AAD000B8BE1046704710B50446C06818B14FF0B4
:10AAE000FF3104F071FC206918B14FF0FF3104F020
:10AAF0006BFCE06800236381238118B11A46194674
:10AB000004F0F6FA206920B100231A46194604F031
:10AB1000EFFA012010BD38B50446C0680D4618B1E3
:10AB20004FF0FF3104F050FC206918B14FF0FF31B5
:10AB300004F04AFCE379E06865F3C713E37120B1E0
:10AB400000231A46194604F0D3FA206920B10023E5
:10AB50001A46194604F0CCFA012038BD0B4B63B1FC
:10AB60000B4B1B78834206D90A4B1B6800EB400055
:10AB700003EBC0007047C01AC0B2042803D8064BCC
:10AB800000EB4000F4E70020704700BF0000000029
:10AB9000E0750020DC7500200496030070B5134EAC
:10ABA000054600242046FFF7D9FF28B9104B1B6843
:10ABB000DB0700D500BE70BD436828469847337850
:10ABC0000134E4B20433A342ECDA3722002109480D
:10ABD0000BF024FA1022FF2107480BF01FFABDE802
:10ABE000704006481222FF210BF018BAE0750020D1
:10ABF000F0ED00E034760020377600204776002024
:10AC000037B50C4605460868019200F0A7FD236899
:10AC1000019A0121284603B0BDE8304018470000E2
:10AC2000024B5878003818BF012070473476002056
:10AC3000024B1878C0F38000704700BF34760020C4
:10AC4000024B1878FF3818BF0120704710610020B0
:10AC5000F7B5234D2B78FF2B04463DD13722002139
:10AC600020480BF0DBF92049012004F0C5FA1F4B06
:10AC7000186030B91E4B1B68DB072FD4002003B0CF
:10AC8000F0BD1C490B46002233F8080B00924A68BD
:10AC9000498804F0F1F9184B18600028EAD0174BE6
:10ACA00023B11748AFF30080164B1860144F0026ED
:10ACB0003046FFF753FF0028DCD0036898473B7805
:10ACC0000136F6B20433B342F2DA20462C7000F0BB
:10ACD000D4FE204600F0D2FE0120D0E700BECEE731
:10ACE0001061002034760020E47500206C7600208E
:10ACF000F0ED00E0B8600020707600200000000059
:10AD0000E0750020DC750020F0B54378023B85B08B
:10AD100004460D46032B22D8DFE803F00261192D0B
:10AD2000394A13786FF30003137013786FF34103FC
:10AD3000137000235370117863F382011170334A4A
:10AD400010688DB92B464FF0FF32214643E02E4B61
:10AD50001A78D00741D51A7842F004021A702B4BAA
:10AD60001868002DEED0002301AA2146019304F0BB
:10AD700058FA019B3CE0244A1378D9072DD5137863
:10AD80006FF382031370EAE7FFF7E8FE20B143692F
:10AD900013B161682078984701363B78F0B20433EC
:10ADA0008342F1DA184A13785B0716D513786FF3EC
:10ADB0008203137022780023CDE901338DF804203B
:10ADC00005228DF80520114A0393106855B92B46CA
:10ADD0004FF0FF3201A904F08BF905B0F0BD0C4F24
:10ADE0000026DAE76A4601A9009304F01AFA009BEC
:10ADF000002BF2D0074B4FF080525A6040BFBFF398
:10AE00004F8FBFF36F8FE8E7347600207076002015
:10AE1000E075002000ED00E01FB50023CDE9020140
:10AE200001931146082301A88DF80530FFF76CFF48
:10AE300005B05DF804FB000038B58B7803F07F03A4
:10AE4000082B0C4606D90B4B1B68DB0700D500BE50
:10AE5000002038BD084B1D78084B2046997801F03A
:10AE600043FB0028EFD021462846BDE8384000F0DB
:10AE70001DBE00BFF0ED00E0106100203476002020
:10AE80002DE9F047DDE9085681460C4690469A4682
:10AE90000027B84501DC01200CE06378052B04D1C4
:10AEA000E37803F00303534508D00E4B1B68DA0721
:10AEB00002D40020BDE8F08700BEFAE721464846EC
:10AEC000FFF7BAFF28B9074B1B68DB07F1D500BEB7
:10AED000F0E7A378DA0914BF33702B7023780137B9
:10AEE0001C44D6E7F0ED00E0CB0901F07F002533EC
:10AEF00003EB4003024A03481168184401F0ACBA5E
:10AF00006C76002034760020CB0901F07F002533D9
:10AF100003EB4003024A03481168184401F0C5BA24
:10AF20006C76002034760020154838B501F07F0596
:10AF300000EB450000EBD11420346079C00707D541
:10AF4000104B1B68DA0701D4002038BD00BEFBE7B8
:10AF5000607940F0010060710B48007800F07AFEE3
:10AF60000028F2D1637960F300036371637960F3C1
:10AF700082036371034B1B68DB07E5D500BEE4E782
:10AF800034760020F0ED00E010610020054B01F068
:10AF90007F0203EB420303EBD11191F8250000F08F
:10AFA000010070473476002010B50C4B01F07F0291
:10AFB00003EB420303EBD114203463799B070BD4DA
:10AFC000074B187800F0BEFE637943F0020363710B
:10AFD000637943F00103637110BD00BF3476002034
:10AFE0001061002010B50C4B01F07F0203EB42030F
:10AFF00003EBD114203463799B070BD5074B1878EA
:10B0000000F0C4FE63796FF34103637163796FF3FA
:10B010000003637110BD00BF347600201061002072
:10B020002DE9F04F984B1B78FF2B8BB0834600F037
:10B03000B4824FF47A72002380024FEA9B510AF0E7
:10B0400095FD012838BF0120904E0490904BBBF134
:10B05000FF3F18681BD0049BBBF1000F14BF1A46BA
:10B06000002207A904F036F9002800F096829DF826
:10B070001D30013B072B00F2D282DFE813F00A00FB
:10B080001B00D0029902BD0227006702C9025A467E
:10B09000E7E79DF81C00FFF781FD00F057FB7D4BB3
:10B0A0009DF820209A707A4B186804F023FA002843
:10B0B000CCD172E29DF81C00FFF770FD00F046FB5A
:10B0C000754B002BEFD0AFF30080ECE7714C9DF88F
:10B0D0001C50237843F00103237094F825306FF35C
:10B0E000000384F8253094F825306FF3820384F848
:10B0F000253094F826306FF3000384F8263094F856
:10B1000026306FF3820384F82630002000F026FBFF
:10B110009DF8207007F06009B9F1600F0ED1336817
:10B12000DC0700D500BE9DF81C00002100F00AFEDF
:10B130009DF81C00802100F005FEB4E7B9F1400F36
:10B140000CD156480028EED000F008FB08AA0121D7
:10B150002846FDF7DDFF0028A5D1E4E707F01F072B
:10B16000012F00F08081022F00F0A981002FD6D19D
:10B17000B9F1200F10D19DF824300F2BD3D81C44E7
:10B18000E078FFF7EBFC0028CDD008AA00F10C0115
:10B190002846FFF735FDDEE7B9F1000FBFD19DF876
:10B1A0002130092BBBD801A252F823F051B4020080
:10B1B0003FB402001FB102002BB402001FB1020015
:10B1C000D5B102006BB302001FB10200EFB1020063
:10B1D00005B2020008A800F0C7FA9DF82210284620
:10B1E00000F052FC237843F0020323705BE763789E
:10B1F0008DF81A3001230DF11A0208A9284600F033
:10B200006DFA50E79DF822300193019A63789A42D3
:10B2100032D063783BB1284600F0D2FCA7782846AC
:10B22000FFF7BCFCA770019B33B3581EC0B2FDF7FB
:10B23000FDFD10B14378022B05D03368DB077FF5A5
:10B240006EAF00BE6BE7C379C3F38012C3F3401344
:10B250001B0143EA4213227822F030021343237089
:10B260004388C31800F109070293029BBB4219D817
:10B270000B4B0BB1AFF30080019B637008A928460C
:10B2800000F014FA0FE700BF10610020F0ED00E0BD
:10B29000707600203476002000000000119102003A
:10B2A000000000007B780B2B03BF3A78FB78BF18B7
:10B2B00001237A78042AC0D1029AA2EB070A1FFA66
:10B2C0008AF203924FF0000AC14A12785FFA8AF8B4
:10B2D00004324245B1DB40460593FFF73FFC059B36
:10B2E00081460028A9D0039A05933946D9F8083039
:10B2F000284698470828059B024633D9039981427E
:10B3000030D3012B09D1D9F80810B248814208BFC7
:10B310000223B148814208BF02234FF0000E5FFABA
:10B320008EF18B420DD843463946AC48039201F06A
:10B330000BF9A74B039A1B7804339845174494DD07
:10B340007BE797F802C0A648614450FA81F10EF1FC
:10B35000010E91F803C0BCF1FF0F7FF46EAF81F8CE
:10B360000380DCE70AF1010AAEE7BDF82200030A18
:10B370005A1EC0B20E2A3FF6D6AE01A151F822F0F5
:10B38000BDB30200E7B3020009B4020027B1020016
:10B3900027B102001DB40200E7B3020027B102008A
:10B3A00027B1020027B1020027B1020027B1020035
:10B3B00027B1020027B10200CFB30200FDF732FD32
:10B3C0001223024608A9284600F088F9C3E6854BF7
:10B3D000002B3FF4A8AEFDF797FE024600283FF48D
:10B3E0009EAE4388EEE7022B07D1FDF71FFD002834
:10B3F0003FF495AE43880246E4E77B4B002B3FF4D5
:10B4000092AEAFF30080F2E7BDF82410FDF714FD13
:10B41000024600283FF487AE0378D3E7734B002B36
:10B420003FF481AEAFF30080F2E7BDF82230012B8C
:10B430007FF479AE237843F0080323701EE7BDF84C
:10B440002230012B7FF46FAE23786FF3C303F4E750
:10B450002378C3F340129B0803F002031343ADF8B3
:10B460001A300223C7E69DF824300F2B3FF65BAE5F
:10B470001C44E078FFF772FB00283FF454AE00F163
:10B480000C0108AA2846FFF7BBFB00287FF40BAE8F
:10B490009DF8203013F060047FF445AE9DF8213014
:10B4A0000A3B012B3FF63FAE00F058F99DF82130E2
:10B4B0000A2B7FF4E3AE8DF81A403B469BE69DF8DD
:10B4C000241001F07F02082A3FF629AE04EB420265
:10B4D00002EBD112D07CFFF741FB8046B9F1000F9F
:10B4E00006D000283FF41FAE08AA00F10C014FE679
:10B4F0009DF8213003F0FD00012809D0002B7FF4D6
:10B500000EAE92F82530C3F34003ADF81A30D4E7FD
:10B51000BDF8222022B9012B284614D1FFF762FD85
:10B52000B8F1000F3FF4BFAD08AA08F10C0128469E
:10B53000FFF766FB002000F011F994F82630DF07D2
:10B540003FF5B1AD9AE6FFF72FFDE9E79DF8201032
:10B55000234B01F07F0403EB440303EBD11393F877
:10B5600025006FF3000083F8250093F825006FF3A2
:10B57000820083F825003CB9099B9DF821209DF8A5
:10B580001C0000F0FFF88EE5D87CFFF7E7FA38B929
:10B59000174B1B68D80700D500BE0BB0BDE8F08F75
:10B5A0000469099B9DF821209DF81C00A0477AE5BD
:10B5B0000B4B1A78D1077FF576AD0E4A002A3FF47F
:10B5C00072AD1878C0F3C000AFF300806BE500BF28
:10B5D000E0750020D5930200859A0200477600208E
:10B5E00034760020099102000000000000000000F5
:10B5F000F0ED00E0000000000C4B1B78DA077FF54F
:10B6000052AD0B4B002B3FF44EADAFF300804AE53B
:10B61000089B002B3FF447AD0998984743E53368F2
:10B62000DB077FF540AD00BE3DE500BF347600206E
:10B6300000000000054B01F07F0203EB420303EB27
:10B64000D11191F82500C0F34000704734760020F6
:10B6500037B514490446CA89888991F90050831A7C
:10B660009BB2402B28BF4023002D10DA904214D00B
:10B670001A4689680C4801930AF0A8FC0A4A019B03
:10B680008021204603B0BDE83040FFF74DBC90421A
:10B690004FF0000103D10022F3E78021FBE7024ACB
:10B6A000EFE700BF347700204877002030B40A4C21
:10B6B00005460A4608684968234603C392F90020F4
:10B6C00000239A42C4E9023328461A4630BCACBF74
:10B6D00080211946FFF728BC34770020F8B5194EB1
:10B6E0000C46054608684968B260374603C7002122
:10B6F000F181E1888B4228BF0B46B38179B143B118
:10B700003AB9114B1B68DA0701D40020F8BD00BE1E
:10B71000FBE72846FFF79CFF68B10120F6E794F9A4
:10B720000030002B0A460B462846ACBF8021002182
:10B73000FFF7FAFBF0E7044B1B68DB07E5D500BE1B
:10B74000E4E700BF34770020F0ED00E00248142267
:10B7500000210AF063BC00BF34770020014B186160
:10B76000704700BF3477002010B50246044C0068D3
:10B770005168234603C30023C4E9023310BD00BF50
:10B780003477002070B52F4C1E462378C909B1EBE1
:10B79000D31F054616D03EB12B4B1B68DA0701D4E8
:10B7A000002070BD00BEFBE7284B13B12146AFF36C
:10B7B000008023690BB90120F3E7224A03212846C0
:10B7C0009847F8E794F90030002B06DBA0680028C2
:10B7D000E6D01F4932460AF0F9FBA268E3893244F9
:10B7E0003344A260E2889BB29A42E38101D03F2EAB
:10B7F00024D823699BB994F90030002B4FF0000343
:10B800001A46ACBF802119462846FFF78DFB002859
:10B81000D1D10D4B1B68DB07C2D500BEC1E70221A9
:10B82000084A2846984701460028E4D1284600F0F7
:10B8300089FA8021284600F085FABCE72846FFF700
:10B8400007FFE4E734770020F0ED00E0000000009F
:10B8500048770020064B1868043B1B68082B04D16E
:10B8600003288CBF0020012070470020704700BFD4
:10B870003401001042DF704743DF704744DF7047F8
:10B8800012DF704743F2040307B51A68094B9A4266
:10B890004FF000000AD18DF807000DF10700FFF707
:10B8A000EFFF9DF80700003818BF012003B05DF8D6
:10B8B00004FB00BFDBE5B15101230360BFF36F8FD1
:10B8C000BFF34F8F074B984202D0043B984207D1F9
:10B8D000BFF35B8F044B002283F82021BFF35B8F03
:10B8E000704700BF507002408877002010B40E4BA4
:10B8F000BFF35B8F01464FF00104D3E84F2FC3E83D
:10B900004C4FBCF1000FF8D1BFF35B8F12F0FF0F6B
:10B9100005D006485DF8044B0122FFF77DBA5DF8BB
:10B92000044BFFF7C9BF00BFA8780020EDB80200A4
:10B930000D4B03EB4013D98A9A8A521A198B92B293
:10B940008A4228BF0A4619691423434303F18043FE
:10B9500003F51C33C3F80016C3F80426034B03EBAE
:10B960008000FFF7C3BF00BF88770020047002404B
:10B97000F0B42C4ABFF35B8F02F590734FF00104D3
:10B98000D3E84F1FC3E8454F002DF9D1BFF35B8FBC
:10B9900011F0FF0F14460BD0234B5A68C2F3080274
:10B9A000003A0146F0BC214818BF0122FFF734BA23
:10B9B00008281F491AD1D1F8C034D80308D5BFF3DD
:10B9C0005B8F002384F82031BFF35B8FF0BC70479E
:10B9D00092F80B010028F2D0D2F800211548C1F8E6
:10B9E000A027C1F8A437F0BCFFF766BF02EB4015F3
:10B9F00000F59473460151F82340EF88AB88DB1BB8
:10BA00009BB2A4B2A34228BF23469459142202FB3E
:10BA10000011C1F80047C1F80437074B03EB800061
:10BA2000E1E700BF8877002000ED00E03DBA0200AA
:10BA3000007002404870024028700240C0B2FFF718
:10BA400097BF07B5FFF71EFF58B1002301A8019368
:10BA5000FFF714FF0198003818BF012003B05DF80C
:10BA600004FB4FF08043D3F80C24D3F80C0410F4FB
:10BA7000803018BF02F00100F0E77047014B8022D0
:10BA80005A60704700E100E0074BD3F80014D3F888
:10BA900000240A43C3F800240022C3F858214FF4BD
:10BAA0008002C3F8042370470070024070B58A78A2
:10BAB0008E883F4CC97802F07F03580000EBD2100B
:10BAC00004EB001001F00301C6F30A0601294FEA56
:10BAD000D215068129D00120364900FA03F4D5B9E0
